:020000040800F2
:1000000000500020A51E0008ED1E0008ED1E00088F
:10001000ED1E0008ED1E0008ED1E000800000000A7
:10002000000000000000000000000000ED1E0008BD
:10003000ED1E000800000000ED1E0008350200085B
:10004000ED1E0008ED1E0008ED1E0008ED1E000864
:10005000ED1E0008ED1E0008ED1E0008ED1E000854
:10006000ED1E0008ED1E0008ED1E0008ED1E000844
:10007000ED1E0008ED1E0008ED1E0008ED1E000834
:10008000ED1E0008ED1E0008ED1E0008ED1E000824
:10009000ED1E0008ED1E0008ED1E0008ED1E000814
:1000A000ED1E0008ED1E0008ED1E0008ED1E000804
:1000B00045020008ED1E0008ED1E0008ED1E0008B8
:1000C000ED1E0008ED1E0008ED1E0008ED1E0008E4
:1000D000ED1E0008ED1E000851020008ED1E00088C
:1000E00065020008ED1E0008ED1E0008000000007B
:1000F0000000000000000000000000000000000000
:0C01000000000000000000005FF808F1A3
:10010C0010B5054C237833B9044B13B10448AFF345
:10011C0000800123237010BD0400002000000000AB
:10012C00381F000808B5034B1BB103490348AFF354
:10013C00008008BD0000000008000020381F0008E7
:10014C0030B44FF41F054FF000640E4B0E4A196883
:10015C000E4841F00101196059680A405A601A684A
:10016C0022F0847222F480321A601A6822F48022FF
:10017C001A605A6822F4FE025A609D60846030BC9A
:10018C00704700BF001002400000FFF800ED00E0D7
:10019C0038B590F82130022B04D00422012482635C
:1001AC00204638BD03681D491A688B4222F00E02A6
:1001BC001A601A6822F001021A6021D0184A934280
:1001CC001CD0143293421DD0143293421DD01432E1
:1001DC0093421DD0143293420CBF4FF480134FF056
:1001EC008073012100240F4D426B6B6080F821104D
:1001FC0080F820407AB19047204638BD1023F0E7B4
:10020C000123EEE74FF48073EBE74FF48053E8E7FC
:10021C004FF48033E5E71446C2E700BF0800024004
:10022C001C0002400000024008B501F0A5F8BDE832
:10023C00084001F0BDB900BF014801F047BC00BF48
:10024C00F440002008B5034800F0BEFCBDE80840AF
:10025C0000F036BA744000204FF4005000F008B99A
:10026C0008B50368B3F1804F00D008BD00F0EEF97B
:10027C000028FAD000F0F0F9014B1B68586308BD58
:10028C00B44000202DE9F04F4FF0000883B04446F5
:10029C00DFF8C0C1694EDFF8C0E102E00134102C78
:1002AC0078D001230A68A3401A409342F6D14D68D6
:1002BC00122D00F09C807ED8022D00F0948074D911
:1002CC00032D00F08D80112D02D1CB6803F10408B1
:1002DC00FF2A62D882460368A5004FF00F0909FA7D
:1002EC0005FB23EA0B0308FA05F52B43CAF800308B
:1002FC00D1F804A01AF0805FD0D0514F24F0030540
:10030C00BB6905F1804543F00103BB61BB6905F591
:10031C00803503F00103019304F0030B019B4FEABA
:10032C008B0BAB6809FA0BF9604523EA09030FD074
:10033C00704560D0434FB84278D0434FB8420CBFA1
:10034C004FF003094FF0040909FA0BFB43EA0B03C6
:10035C00AB6033681AF4803F14BF1343934333608C
:10036C0073681AF4003F14BF134393437360B3686C
:10037C001AF4801F14BF13439343B360F3681AF449
:10038C00001F04F1010414BF1A4323EA0202102CCB
:10039C00F26086D103B0BDE8F08F04F18045083DD2
:1003AC004368AD0000F1040A97E7A5B1012D8FD188
:1003BC00D1F80C808CE7254FBD420CD029D9244FA5
:1003CC00BD4208D007F58037BD4204D0DFF88C90D1
:1003DC004D457FF47DAF8D68A5B94FF0040877E7E4
:1003EC004FF0000874E7CB6803F1080870E7CB689E
:1003FC0003F10C086CE74FF0010909FA0BFB43EA17
:10040C000B03A5E7012D0CBF036143614FF00808F6
:10041C005EE7DFF84C904D45DDD009F580394D4550
:10042C007FF456AF8D68002DD7D0EBE74FF0020963
:10043C0009FA0BFB43EA0B038AE700BF00040140F7
:10044C000010024000100140001401400000211077
:10045C000000311000080140000C01400000221087
:10046C000000111002B9090401617047704700BF08
:10047C00044A5169014200D1704708B55061FFF739
:10048C00F5FF08BD00040140354BF0B59A6989B001
:10049C0042F010029A619969002201F0100100915A
:1004AC00009920219C692F4D0C439C619C69284626
:1004BC000C400194019C9C69164644F004049C6118
:1004CC009C69294F04F004040294029C9C6944F03A
:1004DC0008049C619B69032403F008030393039BAA
:1004EC00FFF7C0FF4FF40052204B384604A904928A
:1004FC00CDE90536FFF7C6FE41F6FF73384604A971
:10050C00CDE90434FFF7BEFE49F6D34304A92846CF
:10051C00CDE904342027FFF7B5FE0122022328463B
:10052C0004A9CDE904720793FFF7ACFE4FF6F773FD
:10053C0004A90F48CDE90434FFF7A4FE042304A951
:10054C000C48CDE90434FFF79DFE32463146282095
:10055C0000F0C6FF282000F0F9FF09B0F0BD00BF85
:10056C000010024000080140001001400000111072
:10057C00000C014000140140044B1A78012A01D0F0
:10058C0002B1704720210248FFF76CBF2000002009
:10059C000008014030B510210224012500224FF43F
:1005AC00601391B006A806940D94CDE90A51CDE9DB
:1005BC000E2300F0D5FB00B1FEE703464FF480623A
:1005CC000F25214601A8CDE902430593019504921C
:1005DC0000F0AEFD044600B1FEE700F07FFE4FF4E4
:1005EC007A73B0FBF3F000F0BDFF042000F0D2FFF3
:1005FC00224621464FF0FF3000F072FF11B030BDA3
:10060C0008B500F0A7FEFFF7C5FFFFF73DFF00F0B0
:10061C000BFF01F005FB01F093FB01F011FC002135
:10062C00054801F073F8054801F014F8044A20213C
:10063C00044800F02DF8FEE7B4400020F440002000
:10064C008505000820000020FEE700BF014B18883C
:10065C00704700BF4240002009480A4A03881288AC
:10066C009A420CD030B4084C084D21885A1C0139E0
:10067C00C2F30D0221800280E85C30BC70477047E9
:10068C004440002040400020424000204000002018
:10069C0030B4064B064D074C286021601A600649A1
:1006AC00012230BC054800F02BBA00BF5840002096
:1006BC0050400020544000204C400020744000204A
:1006CC0038B5294C294B20881B7838282FD04D2839
:1006DC001DD040B1002323800122BDE838402349BE
:1006EC00234800F00DBA234AC02B1060F2D02249E7
:1006FC0009680029EED02149DB2B0B7025D04D2544
:10070C001F4925800C68411C23541160E4E7194AE9
:10071C00C02B106803D0184909688142EBD8002817
:10072C00D8D0184B1B68002BD4D09847D2E7DC2BC1
:10073C000ED0DD2B12D0134B1B680BB10020984749
:10074C000C4A0E4B10681B78D9E738232380C3E77B
:10075C00C0230A49074A0B701068D0E7DB2307490E
:10076C00044A0B701068CAE7684000204C40002017
:10077C007440002048400020544000204E4000208F
:10078C00504000205840002038B5294C23886F2B4E
:10079C0037D026D9772B15D0802B2FD1254D2A6811
:1007AC00254B1B68934221D9244B25491B689B5C24
:1007BC00C02B0B7031D0DB2B25D00122214800F04F
:1007CC007DF908E0DD25204B012219461D481D70DE
:1007DC00184D00F073F980222B68228001332B60B6
:1007EC0038BD5BB9134D1A462B60D9E7C025164BA3
:1007FC000122194613481D7000F060F90023238074
:10080C0038BDDC25DFE7104D012229460D482B7041
:10081C0000F054F97723238038BDDB250A4B0122E5
:10082C00194608481D7000F049F96F23238038BD24
:10083C006C40002064400020604000205C400020A0
:10084C0046400020744000204D40002090F83C3081
:10085C00012B22D00246D1E9020310B4002423F468
:10086C0040730343486823F480630343086823F40C
:10087C0000630343086923F480530343486923F45A
:10088C0000530343886923F44043116803434B64CA
:10089C00204682F83C4010BC70470220704700BFD5
:1008AC0090F83C30012B1ED002460220F0B40025FB
:1008BC000126136882F83D005C680F6824F0700410
:1008CC005C6058684C6838435860986820F0800029
:1008DC009860996828462143996082F83D6082F8B7
:1008EC003C50F0BC70470220704700BF704700BFFF
:1008FC00704700BF002800F09C802DE9F84390F869
:10090C003930044603F0FF02002B00F08D802422C6
:10091C00236884F83920DA68E06822F40052DA603F
:10092C001969A26821F4405101431961D968D4E9CD
:10093C00045021F4B0512A4321F00C0102430A4324
:10094C00DA605A69A0695B4922F4407202438B4217
:10095C005A6170D000F0C8FC636800EB800000EBBB
:10096C0080009B00B0FBF3F3534F4FF06408A7FBE0
:10097C0003235B091D0100F0B7FC666800EB8000E7
:10098C0000EB8000B600B0FBF6F600F0ADFC626840
:10099C0000EB8000930000EB8000B0FBF3F3A7FBAF
:1009AC0003235B0908FB13631B013233A7FB0323EF
:1009BC005B0903F0F00600F097FC626800EB800026
:1009CC0000EB80009300B0FBF3F900F08DFC626843
:1009DC0000EB8000930000EB8000B0FBF3F3A7FB6F
:1009EC0003235B0908FB13931B013233A7FB03237F
:1009FC00C3F3431333432B4420210025226828469C
:100A0C009360136923F490431361536923F02A0311
:100A1C005361D36843F40053D360E56384F8391011
:100A2C0084F83A10BDE8F88380F8382000F01CFDFB
:100A3C006DE70120704700F067FC636800EB8000F5
:100A4C0000EB80009B00B0FBF3F31B4F4FF06408EE
:100A5C00A7FB03235B091D0100F056FC666800EB45
:100A6C00800000EB8000B600B0FBF6F600F04CFC0A
:100A7C00626800EB8000930000EB8000B0FBF3F3A6
:100A8C00A7FB03235B0908FB13631B013233A7FB92
:100A9C0003235B0903F0F00600F036FC626800EB00
:100AAC008000930000EB8000B0FBF3F900F02CFC0D
:100ABC008DE700BF003801401F85EB5190F83930AD
:100ACC00202B18D1C9B1C2B190F83830012B12D0FB
:100ADC0030B4002321240568C284C36380F83940F4
:100AEC00EC68016244F08004828480F83830184647
:100AFC00EC6030BC7047022070470120704700BF8B
:100B0C0090F83A30202B20D109B302B390F838304A
:100B1C00012B1AD030B4002322250468C285C3638C
:100B2C0080F83A50E568828545F4807580F8383055
:100B3C008162E5606269184642F001026261E36815
:100B4C0043F02003E36030BC704702207047012063
:100B5C00704700BF704700BF10B584680169B4F5D9
:100B6C00805F836A026820D05C1C52688462C9B9B9
:100B7C001A70C38D013B9BB2C3858BB920240268CC
:100B8C00D16821F02001D160D16821F48071D1604D
:100B9C00516921F00101516180F83A40FFF7DAFF09
:100BAC00002010BD02F07F02E2E7526829B9C2F3BF
:100BBC00080223F8022B8362DBE7D2B223F8012B65
:100BCC008362D6E7704700BF036870B51A680446A5
:100BDC001607DD6859694AD011F0010150D0D607CB
:100BEC0005D5E80503D5E06B40F00100E06356073E
:100BFC0002F0020076D561B1E16B02F0080641F01B
:100C0C000201E163002872D11EB1E16B41F00801D1
:100C1C00E163E16B002932D0960601D5A80674D4A5
:100C2C005D69E16B090702D415F040057AD02021EB
:100C3C00DA6822F49072DA605A6922F001025A6181
:100C4C0084F83A105A6952065BD55A69616B22F0E6
:100C5C0040025A61002954D03B4B08464B63FFF7C6
:100C6C0097FA60B1606BBDE87040436B184796060D
:100C7C0009D5A90607D590F83A30222B4ED070BD75
:100C8C0015F4907FABD116060ED45106F7D56A0633
:100C9C00F5D52021DA68204622F04002DA6084F88B
:100CAC003910FFF771FD70BD2806EED594F8392088
:100CBC00212AE4D1A168226AB1F5805F37D0511C9A
:100CCC00216212785A60E28C013A92B2E284002AD4
:100CDC00D5D1DA6822F08002DA60DA6842F040029C
:100CEC00DA6070BD40B1002993D002F00806E16BC8
:100CFC0041F00401E16387E710078AD5002984D10C
:100D0C0087E72046FFF75EFF70BD94F83A20222A51
:100D1C0086D12046FFF720FF236881E7BDE87040AD
:100D2C00FFF71ABF2046FFF74DFFE56370BD118832
:100D3C002069C1F30801596010B902322262C2E77E
:100D4C0001322262BFE700BF590D0008002208B52E
:100D5C00436ADA851846DA84FFF734FF08BD00BF12
:100D6C002DE9F041036882B0DD07044630D5AB496C
:100D7C004A6802F00C02042A00F0DA804A6802F099
:100D8C000C02082A00F0D0806368B3F5803F00F0B5
:100D9C000F81002B00F02781B3F5A02F00F0B58157
:100DAC009E4B1A6822F480321A601A6822F4802250
:100DBC001A6000F0E9FA994D064605E000F0E4FAF5
:100DCC00801B642800F20B812B689A03F6D52368EC
:100DDC009F0728D5914A516811F00C0F00F0B6808E
:100DEC00516801F00C01082900F0AC802369002B3C
:100DFC0000F0418101228A4B884D1A6000F0C4FA40
:100E0C00064605E000F0C0FA801B022800F2E780DD
:100E1C002B689807F6D52B68626923F0F80343EA30
:100E2C00C2032B6023681A0722D5A369002B00F09C
:100E3C00988001227B4B794D1A6000F0A5FA06468A
:100E4C0005E000F0A1FA801B022800F2C8806B6A52
:100E5C009B07F6D5744B754A1B68A2FB03235B0AF0
:100E6C00019300BF019B5A1E0192002BF9D12368FC
:100E7C005D0739D5694BDA69D00040F182800025D5
:100E8C006B4B1A68D10540F19980E368012B0FD0A8
:100E9C00002B00F0D180052B604B1A6A00F0FC800F
:100EAC0022F001021A621A6A22F004021A6204E0A9
:100EBC005A4A136A43F00103136200F065FA574E65
:100ECC00804641F2883706E000F05EFAA0EB08009D
:100EDC00B84200F28480336A9B07F5D525B14F4A9E
:100EEC00D36923F08053D361E269CAB14B4D696871
:100EFC0001F00C01082930D0022A4FF000014D4AB4
:100F0C0000F0D280116000F03FFA2C46054604E058
:100F1C0000F03AFA401B022861D823689B01F7D4F1
:100F2C00002002B0BDE8F0814A68D0037FF52CAFF9
:100F3C003A4A126891037FF54BAF6268002A7FF43E
:100F4C0047AF0AE05268D6033FF550AF334A1268F8
:100F5C00950721D52269012A1ED0012002B0BDE8D7
:100F6C00F081304A2D4D136000F00EFA064604E075
:100F7C0000F00AFA801B022831D86B6A9F07F7D45D
:100F8C0075E7DA69012542F08052DA61DB6903F01A
:100F9C0080530093009B73E7204960690A6822F034
:100FAC00F80242EAC0020A601A077FF561AF3CE71B
:100FBC001A4A136843F480331360FAE61A681E4623
:100FCC0042F480721A6000F0DFF907463368DA05E4
:100FDC003FF55BAF00F0D8F9C01B6428F6D90320AD
:100FEC0002B0BDE8F08103F1804303F504331A68C5
:100FFC001D4622F480321A601A6822F480221A608C
:10100C0000F0C2F9064604E000F0BEF9801B64282B
:10101C00E5D82B689B03F7D4D9E600BF001002403B
:10102C00000042428004424200000020D34D621076
:10103C00007000406000424203F1804303F504332A
:10104C001A6A1E4622F001021A621A6A41F28838A4
:10105C0022F004021A6200F097F9074604E000F04F
:10106C0093F9C01B4045BAD8336A9807F7D4002DC2
:10107C003FF43AAF33E72B4A2B4D136000F084F961
:10108C00064604E000F080F9801B0228A7D82B68E4
:10109C009907F7D42368C6E642F004021A621A6A6A
:1010AC0042F001021A6208E7116000F06DF9064681
:1010BC0004E000F069F9801B022890D82B68990194
:1010CC00F7D4226AB2F5803F05D16B68A16823F48E
:1010DC0000330B436B600125134B606A5968024364
:1010EC0021F4741111480A435A6005601C4600F043
:1010FC004BF9054605E000F047F9401B02283FF686
:10110C006EAF23689A01F6D50AE703F18043A3F585
:10111C003C331A6842F480221A601A6842F4803216
:10112C001A6046E600004242001002406000424253
:10113C00634A136803F007038B420BD2136823F046
:10114C0007030B431360136803F007038B4201D0B2
:10115C00012070472DE9F041036886B09C0706D545
:10116C00584C8568626822F0F0022A436260DA0704
:10117C0004460E4625D54268524B012A1B6800F0E6
:10118C009980022A00F092809D072AD54D4D41F29C
:10119C0088386B6823F0030313436B6000F0F4F89A
:1011AC0063680746012B64D0022B06D16CE000F07B
:1011BC00EBF8C01B404500F281806B6813F00C0FFC
:1011CC00F5D13F4A136803F00703B3420DD91368F6
:1011DC0023F0070333431360136803F00703B34290
:1011EC0003D0012006B0BDE8F0812368580706D56E
:1011FC003449E0684A6822F4E06202434A60190705
:10120C0007D5304A2169536823F4605343EAC1037C
:10121C00536040F201222C4B06ACADF804200FCBEE
:10122C0004E90F0027494A6802F00C03082B10D080
:10123C00264B244A264852682649C2F30312825C84
:10124C000020D3400B6000F06FF8002006B0BDE822
:10125C00F081C2F383432344D20313F8103C19D416
:10126C001D4A02FB03F3E4E700F08EF8C01B404577
:10127C0024D86B6803F00C03042BF5D1A1E700F024
:10128C0083F8C01B404519D86B6803F00C03082B7E
:10129C00F5D196E74A680D49C2F34042224412F850
:1012AC00142CB1FBF2F203FB02F3C2E79F013FF5F2
:1012BC006DAF96E79B033FF569AF92E7032091E78B
:1012CC000020024000100240501F000800127A005B
:1012DC00601F00080000002000093D00014B186849
:1012EC00704700BF00000020044B05495B68054AAD
:1012FC00C3F30223CB5C1068D84070470010024047
:10130C00701F000800000020044B05495B68054A6B
:10131C00C3F3C223CB5C1068D84070470010024066
:10132C00701F00080000002010B50446074A084B47
:10133C001068A3FB0030800900F014F9214600224C
:10134C004FF0FF3000F0CCF8002010BD0000002062
:10135C00D34D6210074A08B51368032043F01003FD
:10136C00136000F0ABF80020FFF7DEFF00F012F87E
:10137C00002008BD00200240024A136801331360AC
:10138C00704700BF70400020014B1868704700BFC9
:10139C0070400020224B00B59A6983B042F00102E4
:1013AC009A619B69032003F001030193019B00F0F8
:1013BC0085F800226FF00B00114600F091F8002226
:1013CC006FF00A00114600F08BF800226FF0090054
:1013DC00114600F085F800226FF00400114600F071
:1013EC007FF800226FF00300114600F079F800221C
:1013FC006FF00100114600F073F800224FF0FF303F
:10140C00114600F06DF8074B5A6822F0E0625A6002
:10141C005A6842F000725A6003B05DF804FB00BFDA
:10142C00001002400000014038B500224FF4613535
:10143C000C210A4B0A4C1846C3E900455961C3E913
:10144C0002221A61C3E90622FFF754FA00B938BD2B
:10145C004221BDE838400348FFF7F6B8744000203D
:10146C0000440040781F00080268124B9A4200D0DA
:10147C00704730B502240C2503F5E633DA6987B0E2
:10148C0042F40032DA61DB6902A903F40033019300
:10149C000948019B029503940594FEF7F3FE002284
:1014AC000121262000F01CF8262000F04FF807B090
:1014BC0030BD00BF00440040000801404FF6FF0162
:1014CC00064A0002D36800F4E0600B4043F0BF63AF
:1014DC0043F400330343D360704700BF00ED00E0DA
:1014EC00184B30B4DB68C3F30223C3F10705042D9A
:1014FC0003F1040428BF0425062C19D94FF0FF343E
:10150C00033B9C4022EA04044FF0FF32AA4021EA3C
:10151C00020101FA03F2224312010028D2B20ADBC3
:10152C0000F1604000F5614080F8002330BC70474A
:10153C0000242346E8E7044B00F00F0003441A761E
:10154C0030BC704700ED00E0FCEC00E0012300F043
:10155C001F01034A40098B4042F82030704700BFFE
:10156C0000E100E00138B0F1807F0DD230B4F025FD
:10157C0000220721054B064C586084F82350104676
:10158C0030BC9A60196070470120704710E000E091
:10159C0000ED00E0044A042813680CBF43F0040378
:1015AC0023F004031360704710E000E0704700BFA5
:1015BC0008B5FFF7FBFF08BD002836D090F83D308A
:1015CC0070B503F0FF0204460BB302232268204ED1
:1015DC0084F83D30B2421368A569E068616826D092
:1015EC00B2F1804F18D0A6F59436B24214D006F55D
:1015FC008066B24210D023F080032B431360D0627C
:10160C00916201230020536184F83D3070BD80F855
:10161C003C2000F0CFFBD8E7A66823F070033343DF
:10162C00266923F440733343E5E701207047A6682D
:10163C0023F070033343266923F44073334323F0C0
:10164C0080032B431360D062916263691363D8E704
:10165C00002C014003680020DA6842F00102DA60D5
:10166C001A6842F001021A60704700BF704700BF51
:10167C00002836D090F83D3070B503F0FF020446D8
:10168C000BB302232268204E84F83D30B24213681B
:10169C00A569E068616826D0B2F1804F18D0A6F534
:1016AC009436B24214D006F58066B24210D023F0C4
:1016BC0080032B431360D06291620123002053619D
:1016CC0084F83D3070BD80F83C20FFF7CFFFD8E7A1
:1016DC00A66823F070033343266923F44073334325
:1016EC00E5E701207047A66823F0700333432669B1
:1016FC0023F44073334323F080032B431360D062F5
:10170C00916263691363D8E7002C014001220368DE
:10171C0002FA01F11A6A0A4822EA01021A621A6AEA
:10172C00834241EA0201196203D15A6C42F400422D
:10173C005A641A68002042F001021A60704700BF18
:10174C00002C014090F83C30012B00F0C580F0B427
:10175C000223012480F83D3080F83C400C2A36D816
:10176C00DFE802F03E3535356735353591353535A1
:10177C00070003688F681D6A0E6825F480551D628A
:10178C001A6A6C4DD3F804C0DC6922F4005224F4BC
:10179C00E644AB4242EA073244EA062404D14D69DE
:1017AC002CF4804C4CEA851C4D68C3F804C0DC61F9
:1017BC001D641A62DC690D6944F40064DC61D9694A
:1017CC0021F48061D961DA6942EA0522DA610023E9
:1017DC00F0BC012280F83C3080F83D201846704760
:1017EC0003688F681D6A0E6825F001051D621A6A70
:1017FC00504DD3F804C09C6922F0020224F073040B
:10180C00AB4242EA070244EA060476D04D68C3F8BC
:10181C0004C09C615D631A629C690D6944F0080404
:10182C009C61996921F0040199619A692A439A6132
:10183C00CDE703688F681D6A0E6825F010051D62E0
:10184C001A6A3C4DD3F804C09C6922F0200224F49F
:10185C00E644AB4242EA071244EA06245BD04D68E8
:10186C00C3F804C09C619D631A629C690D6944F4C1
:10187C0000649C61996921F4806199619A6942EADA
:10188C0005229A61A3E703688F681D6A0E6825F428
:10189C0080751D621A6A274DD3F804C0DC6922F4E6
:1018AC00007224F07304AB4242EA072244EA0604B5
:1018BC0014D04D68C3F804C0DC61DD631A62DC69C6
:1018CC000D6944F00804DC61D96921F00401D96187
:1018DC00DA692A43DA617AE702207047CE6822F48B
:1018EC000062D1E905752CF4405C42EA06223D43C6
:1018FC0022F480624CEA051CDBE7CF6822F0080278
:10190C00D1E905562CF4407C3A43354322F00402CD
:10191C0045EA0C0C7AE7CE6822F08002D1E9057515
:10192C002CF4406C42EA06123D4322F040024CEA91
:10193C00850C94E7002C014090F83C30012B67D0CB
:10194C000222F0B40125036880F83D209A680C68E7
:10195C0022F47F4222F07702402C80F83C509A60AF
:10196C0000F0938018D9702C7FD02BD9B4F5805F00
:10197C0076D0B4F5005F1CD1D1E90152CC689968DE
:10198C002A4342EA042221F47F410A439A609A686E
:10199C0042F480429A600CE0102C42D02FD9202CBB
:1019AC0038D0302C05D19A6822F0700242F0370200
:1019BC009A600023F0BC012280F83C3080F83D2076
:1019CC0018467047502C33D0602CF2D11C6A4D68ED
:1019DC0024F01004CE681C6299691A6A21F47041D3
:1019EC0022F0A00242EA051241EA063199611A621C
:1019FC009A6822F0700242F067029A60D9E7002CD4
:101A0C00D7D19A6822F0700242F007029A60D0E7B0
:101A1C00022070479A6822F0700242F027029A6006
:101A2C00C7E79A6822F0700242F017029A60C0E78A
:101A3C001D6A1E6A4C6826F00106CF681E629A6900
:101A4C0025F00A0122F0F00242EA071221439A61C2
:101A5C0019629A6822F0700242F057029A60A8E765
:101A6C009A6822F007029A60A3E7D1E90152CC6888
:101A7C0099682A4342EA042221F47F410A439A607E
:101A8C009A6842F077029A6093E71D6A1E6A4C6866
:101A9C0026F00106CF681E629A6925F00A0122F031
:101AAC00F00242EA071221439A6119629A6822F005
:101ABC00700242F047029A607BE700BF704700BF9C
:101ACC00704700BF704700BF704700BF036810B578
:101ADC001A690446910702D5DA6892075FD41A692D
:101AEC00500702D5DA68510746D41A69120702D595
:101AFC00DA6810072ED41A69D20602D5DA68D00635
:101B0C0018D41A69D10702D5DA68D2075DD41A69DC
:101B1C00100602D5DA6811065FD41A69520602D58E
:101B2C00DA68500661D41A69910602D5DA68920611
:101B3C0043D410BD6FF0100108221961DB692046F7
:101B4C0013F4407F227764D0FFF7BAFF002223689A
:101B5C002277D6E76FF0080104221961DB69204671
:101B6C009907227752D1FFF7A9FF2046FFF7AAFF6A
:101B7C00002223682277BEE76FF00401022219616C
:101B8C009B69204613F4407F22773CD1FFF796FFE8
:101B9C002046FFF797FF002223682277A5E76FF016
:101BAC000201012219619B6902779B0725D0FFF77F
:101BBC0087FF00222368227791E76FF020022046EE
:101BCC00BDE810401A61FEF791BE6FF0010220468D
:101BDC001A61FEF745FB236899E76FF080022046F7
:101BEC001A61FEF785FE236897E76FF040022046E6
:101BFC001A61FFF769FF236895E7FFF75FFF20463F
:101C0C00FFF760FFD5E7FFF75BFFC4E7FFF758FF6F
:101C1C00AEE7FFF753FF2046FFF754FF96E700BFF0
:101C2C000023FF21802230B5414C424D99B0204613
:101C3C00C4E90133C4E904332560E160A261FFF714
:101C4C00BBFC002842D14FF4805318A941F8583DF1
:101C5C003748FFF771FE002865D13548FFF708FDBE
:101C6C0000285BD1002369463148CDE90033FEF7EB
:101C7C0017FE00284DD1002360251A460AA92C48CE
:101C8C00CDE90B33CDE90D33CDE90F330A95FFF7D1
:101C9C0059FD002838D10AA904222548FFF752FD26
:101CAC0068BB00234FF4005211A92148CDE9113330
:101CBC00CDE913331593CDE91623FEF7C7FD50B9C3
:101CCC0022681C4B9A420ED019B030BD43211A48E1
:101CDC00FEF7BAFCB7E772211748FEF7B5FC22688D
:101CEC00144B9A42F0D102234FF4407206A91348C8
:101CFC00CDE906230993FEF7C5FA19B030BD66216C
:101D0C000D48FEF7A1FCCCE761210B48FEF79CFCCB
:101D1C00C1E755210848FEF797FCACE74E21064871
:101D2C00FEF792FC9EE749210348FEF78DFC94E7F1
:101D3C00B4400020002C0140841F00080008014022
:101D4C004FF0804030B5002201254FF4FA64802119
:101D5C00164B87B0186018465D60DC6099619A601C
:101D6C001A61FFF729FCD8B94FF4805306A941F842
:101D7C00103D0E48FFF7E0FD68B9002369460B489B
:101D8C00CDE90033FEF78CFD18B193210848FEF71E
:101D9C005BFC07B030BD8C210548FEF755FCECE729
:101DAC0086210348FEF750FCDEE700BFF44000201C
:101DBC00841F000810B50368154A82B0934204D002
:101DCC00B3F1804F0DD002B010BD124B9A6942F4A2
:101DDC0000629A619B6903F400630093009B02B05C
:101DEC0010BD002203F50433DC69114644F00104F4
:101DFC00DC61DB691C2003F001030193019BFFF7FD
:101E0C006FFB1C2002B0BDE81040FFF79FBB00BF6A
:101E1C00002C01400010024080B1437910B503F052
:101E2C00FF0204461BB101230020637110BD027137
:101E3C0000F01CF801230020637110BD01207047D5
:101E4C0008B5074B074A18461A60FFF7E5FF00B9BB
:101E5C0008BD3821BDE808400348FEF7F5BB00BFBC
:101E6C003441002000300240901F00080268094BEA
:101E7C009A4200D07047A3F500535A6982B042F0E1
:101E8C0040025A615B6903F040030193019B02B06D
:101E9C00704700BF00300240002103E00B4B5B5841
:101EAC00435004310A480B4B42189A42F6D30A4A63
:101EBC0002E0002342F8043B084B9A42F9D3FEF7A8
:101ECC003FF900F00FF8FEF79BFB7047A41F0008CA
:101EDC000000002004000020040000203C410020F1
:101EEC00FEE7000070B500250C4E0D4CA41BA41091
:101EFC00A54209D100F01AF800250A4E0A4CA41B81
:101F0C00A410A54205D170BD56F82530984701356F
:101F1C00EEE756F8253098470135F2E79C1F00088C
:101F2C009C1F00089C1F0008A01F0008F8B500BFEC
:101F3C00F8BC08BC9E467047F8B500BFF8BC08BC9E
:041F4C009E467047F6
:101F500002030405060708090A0B0C0D0E0F1010EA
:101F60000000000000000000010203040607080949
:101F700000000000010203045372632F7573617245
:101F8000742E63005372632F74696D2E630000001A
:0C1F90005372632F6372632E6300000025
:041F9C003101000807
:041FA0000D01000827
:041FA40000A24A0449
:0400000508001EA52C
:00000001FF
